{
  "_format": "hh-sol-artifact-1",
  "contractName": "BulkSender",
  "sourceName": "contracts/BulkSender.sol",
  "abi": [
    {
      "inputs": [
        {
          "internalType": "address",
          "name": "_polyContract",
          "type": "address"
        }
      ],
      "stateMutability": "nonpayable",
      "type": "constructor"
    },
    {
      "inputs": [
        {
          "internalType": "address",
          "name": "owner",
          "type": "address"
        }
      ],
      "name": "OwnableInvalidOwner",
      "type": "error"
    },
    {
      "inputs": [
        {
          "internalType": "address",
          "name": "account",
          "type": "address"
        }
      ],
      "name": "OwnableUnauthorizedAccount",
      "type": "error"
    },
    {
      "anonymous": false,
      "inputs": [
        {
          "indexed": true,
          "internalType": "address",
          "name": "previousOwner",
          "type": "address"
        },
        {
          "indexed": true,
          "internalType": "address",
          "name": "newOwner",
          "type": "address"
        }
      ],
      "name": "OwnershipTransferred",
      "type": "event"
    },
    {
      "inputs": [
        {
          "internalType": "uint256[]",
          "name": "tokenIds",
          "type": "uint256[]"
        },
        {
          "internalType": "address",
          "name": "source",
          "type": "address"
        }
      ],
      "name": "bulkSend",
      "outputs": [],
      "stateMutability": "nonpayable",
      "type": "function"
    },
    {
      "inputs": [],
      "name": "owner",
      "outputs": [
        {
          "internalType": "address",
          "name": "",
          "type": "address"
        }
      ],
      "stateMutability": "view",
      "type": "function"
    },
    {
      "inputs": [],
      "name": "renounceOwnership",
      "outputs": [],
      "stateMutability": "nonpayable",
      "type": "function"
    },
    {
      "inputs": [
        {
          "internalType": "address",
          "name": "newOwner",
          "type": "address"
        }
      ],
      "name": "transferOwnership",
      "outputs": [],
      "stateMutability": "nonpayable",
      "type": "function"
    }
  ],
  "bytecode": "0x608060405234801561001057600080fd5b50604051610a03380380610a0383398181016040528101906100329190610223565b33600073ffffffffffffffffffffffffffffffffffffffff168173ffffffffffffffffffffffffffffffffffffffff16036100a55760006040517f1e4fbdf700000000000000000000000000000000000000000000000000000000815260040161009c919061025f565b60405180910390fd5b6100b4816100fc60201b60201c565b5080600160006101000a81548173ffffffffffffffffffffffffffffffffffffffff021916908373ffffffffffffffffffffffffffffffffffffffff1602179055505061027a565b60008060009054906101000a900473ffffffffffffffffffffffffffffffffffffffff169050816000806101000a81548173ffffffffffffffffffffffffffffffffffffffff021916908373ffffffffffffffffffffffffffffffffffffffff1602179055508173ffffffffffffffffffffffffffffffffffffffff168173ffffffffffffffffffffffffffffffffffffffff167f8be0079c531659141344cd1fd0a4f28419497f9722a3daafe3b4186f6b6457e060405160405180910390a35050565b600080fd5b600073ffffffffffffffffffffffffffffffffffffffff82169050919050565b60006101f0826101c5565b9050919050565b610200816101e5565b811461020b57600080fd5b50565b60008151905061021d816101f7565b92915050565b600060208284031215610239576102386101c0565b5b60006102478482850161020e565b91505092915050565b610259816101e5565b82525050565b60006020820190506102746000830184610250565b92915050565b61077a806102896000396000f3fe608060405234801561001057600080fd5b506004361061004c5760003560e01c8063715018a6146100515780638da5cb5b1461005b5780639bdc817214610079578063f2fde38b14610095575b600080fd5b6100596100b1565b005b6100636100c5565b60405161007091906103e5565b60405180910390f35b610093600480360381019061008e91906105cf565b6100ee565b005b6100af60048036038101906100aa919061062b565b6101cb565b005b6100b9610251565b6100c360006102d8565b565b60008060009054906101000a900473ffffffffffffffffffffffffffffffffffffffff16905090565b6100f6610251565b60005b82518110156101c6576000600160009054906101000a900473ffffffffffffffffffffffffffffffffffffffff1690508073ffffffffffffffffffffffffffffffffffffffff166323b872dd843387868151811061015a57610159610658565b5b60200260200101516040518463ffffffff1660e01b815260040161018093929190610696565b600060405180830381600087803b15801561019a57600080fd5b505af11580156101ae573d6000803e3d6000fd5b505050505080806101be906106fc565b9150506100f9565b505050565b6101d3610251565b600073ffffffffffffffffffffffffffffffffffffffff168173ffffffffffffffffffffffffffffffffffffffff16036102455760006040517f1e4fbdf700000000000000000000000000000000000000000000000000000000815260040161023c91906103e5565b60405180910390fd5b61024e816102d8565b50565b61025961039c565b73ffffffffffffffffffffffffffffffffffffffff166102776100c5565b73ffffffffffffffffffffffffffffffffffffffff16146102d65761029a61039c565b6040517f118cdaa70000000000000000000000000000000000000000000000000000000081526004016102cd91906103e5565b60405180910390fd5b565b60008060009054906101000a900473ffffffffffffffffffffffffffffffffffffffff169050816000806101000a81548173ffffffffffffffffffffffffffffffffffffffff021916908373ffffffffffffffffffffffffffffffffffffffff1602179055508173ffffffffffffffffffffffffffffffffffffffff168173ffffffffffffffffffffffffffffffffffffffff167f8be0079c531659141344cd1fd0a4f28419497f9722a3daafe3b4186f6b6457e060405160405180910390a35050565b600033905090565b600073ffffffffffffffffffffffffffffffffffffffff82169050919050565b60006103cf826103a4565b9050919050565b6103df816103c4565b82525050565b60006020820190506103fa60008301846103d6565b92915050565b6000604051905090565b600080fd5b600080fd5b600080fd5b6000601f19601f8301169050919050565b7f4e487b7100000000000000000000000000000000000000000000000000000000600052604160045260246000fd5b61046282610419565b810181811067ffffffffffffffff821117156104815761048061042a565b5b80604052505050565b6000610494610400565b90506104a08282610459565b919050565b600067ffffffffffffffff8211156104c0576104bf61042a565b5b602082029050602081019050919050565b600080fd5b6000819050919050565b6104e9816104d6565b81146104f457600080fd5b50565b600081359050610506816104e0565b92915050565b600061051f61051a846104a5565b61048a565b90508083825260208201905060208402830185811115610542576105416104d1565b5b835b8181101561056b578061055788826104f7565b845260208401935050602081019050610544565b5050509392505050565b600082601f83011261058a57610589610414565b5b813561059a84826020860161050c565b91505092915050565b6105ac816103c4565b81146105b757600080fd5b50565b6000813590506105c9816105a3565b92915050565b600080604083850312156105e6576105e561040a565b5b600083013567ffffffffffffffff8111156106045761060361040f565b5b61061085828601610575565b9250506020610621858286016105ba565b9150509250929050565b6000602082840312156106415761064061040a565b5b600061064f848285016105ba565b91505092915050565b7f4e487b7100000000000000000000000000000000000000000000000000000000600052603260045260246000fd5b610690816104d6565b82525050565b60006060820190506106ab60008301866103d6565b6106b860208301856103d6565b6106c56040830184610687565b949350505050565b7f4e487b7100000000000000000000000000000000000000000000000000000000600052601160045260246000fd5b6000610707826104d6565b91507fffffffffffffffffffffffffffffffffffffffffffffffffffffffffffffffff8203610739576107386106cd565b5b60018201905091905056fea26469706673582212208d62cc541bc4fbbef523b2207267bb79fd343d851e2faf5d938ef87d7092d26d64736f6c63430008140033",
  "linkReferences": {},
  "deployedLinkReferences": {}
}