{
  "_format": "hh-sol-artifact-1",
  "contractName": "BulkSender",
  "sourceName": "contracts/BulkSender.sol",
  "abi": [
    {
      "inputs": [
        {
          "internalType": "address",
          "name": "_polyContract",
          "type": "address"
        },
        {
          "internalType": "address[]",
          "name": "_owners",
          "type": "address[]"
        }
      ],
      "stateMutability": "nonpayable",
      "type": "constructor"
    },
    {
      "inputs": [
        {
          "internalType": "address",
          "name": "owner",
          "type": "address"
        }
      ],
      "name": "OwnableInvalidOwner",
      "type": "error"
    },
    {
      "inputs": [
        {
          "internalType": "address",
          "name": "account",
          "type": "address"
        }
      ],
      "name": "OwnableUnauthorizedAccount",
      "type": "error"
    },
    {
      "anonymous": false,
      "inputs": [
        {
          "indexed": true,
          "internalType": "address",
          "name": "previousOwner",
          "type": "address"
        },
        {
          "indexed": true,
          "internalType": "address",
          "name": "newOwner",
          "type": "address"
        }
      ],
      "name": "OwnershipTransferred",
      "type": "event"
    },
    {
      "inputs": [
        {
          "internalType": "uint256[]",
          "name": "tokenIds",
          "type": "uint256[]"
        },
        {
          "internalType": "address",
          "name": "source",
          "type": "address"
        }
      ],
      "name": "bulkSend",
      "outputs": [],
      "stateMutability": "nonpayable",
      "type": "function"
    },
    {
      "inputs": [
        {
          "internalType": "address",
          "name": "wallet",
          "type": "address"
        }
      ],
      "name": "getPolygonTransfers",
      "outputs": [
        {
          "internalType": "uint256[]",
          "name": "",
          "type": "uint256[]"
        }
      ],
      "stateMutability": "view",
      "type": "function"
    },
    {
      "inputs": [],
      "name": "owner",
      "outputs": [
        {
          "internalType": "address",
          "name": "",
          "type": "address"
        }
      ],
      "stateMutability": "view",
      "type": "function"
    },
    {
      "inputs": [],
      "name": "renounceOwnership",
      "outputs": [],
      "stateMutability": "nonpayable",
      "type": "function"
    },
    {
      "inputs": [
        {
          "internalType": "address",
          "name": "newOwner",
          "type": "address"
        }
      ],
      "name": "transferOwnership",
      "outputs": [],
      "stateMutability": "nonpayable",
      "type": "function"
    }
  ],
  "bytecode": "0x60806040523480156200001157600080fd5b5060405162000e5238038062000e52833981810160405281019062000037919062000481565b33600073ffffffffffffffffffffffffffffffffffffffff168173ffffffffffffffffffffffffffffffffffffffff1603620000ad5760006040517f1e4fbdf7000000000000000000000000000000000000000000000000000000008152600401620000a49190620004f8565b60405180910390fd5b620000be816200012160201b60201c565b5081600160006101000a81548173ffffffffffffffffffffffffffffffffffffffff021916908373ffffffffffffffffffffffffffffffffffffffff160217905550806002908051906020019062000118929190620001e5565b50505062000515565b60008060009054906101000a900473ffffffffffffffffffffffffffffffffffffffff169050816000806101000a81548173ffffffffffffffffffffffffffffffffffffffff021916908373ffffffffffffffffffffffffffffffffffffffff1602179055508173ffffffffffffffffffffffffffffffffffffffff168173ffffffffffffffffffffffffffffffffffffffff167f8be0079c531659141344cd1fd0a4f28419497f9722a3daafe3b4186f6b6457e060405160405180910390a35050565b82805482825590600052602060002090810192821562000261579160200282015b82811115620002605782518260006101000a81548173ffffffffffffffffffffffffffffffffffffffff021916908373ffffffffffffffffffffffffffffffffffffffff1602179055509160200191906001019062000206565b5b50905062000270919062000274565b5090565b5b808211156200028f57600081600090555060010162000275565b5090565b6000604051905090565b600080fd5b600080fd5b600073ffffffffffffffffffffffffffffffffffffffff82169050919050565b6000620002d482620002a7565b9050919050565b620002e681620002c7565b8114620002f257600080fd5b50565b6000815190506200030681620002db565b92915050565b600080fd5b6000601f19601f8301169050919050565b7f4e487b7100000000000000000000000000000000000000000000000000000000600052604160045260246000fd5b6200035c8262000311565b810181811067ffffffffffffffff821117156200037e576200037d62000322565b5b80604052505050565b60006200039362000293565b9050620003a1828262000351565b919050565b600067ffffffffffffffff821115620003c457620003c362000322565b5b602082029050602081019050919050565b600080fd5b6000620003f1620003eb84620003a6565b62000387565b90508083825260208201905060208402830185811115620004175762000416620003d5565b5b835b818110156200044457806200042f8882620002f5565b84526020840193505060208101905062000419565b5050509392505050565b600082601f8301126200046657620004656200030c565b5b815162000478848260208601620003da565b91505092915050565b600080604083850312156200049b576200049a6200029d565b5b6000620004ab85828601620002f5565b925050602083015167ffffffffffffffff811115620004cf57620004ce620002a2565b5b620004dd858286016200044e565b9150509250929050565b620004f281620002c7565b82525050565b60006020820190506200050f6000830184620004e7565b92915050565b61092d80620005256000396000f3fe608060405234801561001057600080fd5b50600436106100575760003560e01c806338057ebf1461005c578063715018a61461008c5780638da5cb5b146100965780639bdc8172146100b4578063f2fde38b146100d0575b600080fd5b61007660048036038101906100719190610560565b6100ec565b6040516100839190610655565b60405180910390f35b610094610183565b005b61009e610197565b6040516100ab9190610686565b60405180910390f35b6100ce60048036038101906100c99190610826565b6101c0565b005b6100ea60048036038101906100e59190610560565b610315565b005b6060600360008373ffffffffffffffffffffffffffffffffffffffff1673ffffffffffffffffffffffffffffffffffffffff16815260200190815260200160002080548060200260200160405190810160405280929190818152602001828054801561017757602002820191906000526020600020905b815481526020019060010190808311610163575b50505050509050919050565b61018b61039b565b6101956000610422565b565b60008060009054906101000a900473ffffffffffffffffffffffffffffffffffffffff16905090565b60008251905060005b8181101561030f576000600160009054906101000a900473ffffffffffffffffffffffffffffffffffffffff1690508073ffffffffffffffffffffffffffffffffffffffff166323b872dd853388868151811061022957610228610882565b5b60200260200101516040518463ffffffff1660e01b815260040161024f939291906108c0565b600060405180830381600087803b15801561026957600080fd5b505af115801561027d573d6000803e3d6000fd5b50505050600360008573ffffffffffffffffffffffffffffffffffffffff1673ffffffffffffffffffffffffffffffffffffffff1681526020019081526020016000208583815181106102d3576102d2610882565b5b602002602001015190806001815401808255809150506001900390600052602060002001600090919091909150558180600101925050506101c9565b50505050565b61031d61039b565b600073ffffffffffffffffffffffffffffffffffffffff168173ffffffffffffffffffffffffffffffffffffffff160361038f5760006040517f1e4fbdf70000000000000000000000000000000000000000000000000000000081526004016103869190610686565b60405180910390fd5b61039881610422565b50565b6103a36104e6565b73ffffffffffffffffffffffffffffffffffffffff166103c1610197565b73ffffffffffffffffffffffffffffffffffffffff1614610420576103e46104e6565b6040517f118cdaa70000000000000000000000000000000000000000000000000000000081526004016104179190610686565b60405180910390fd5b565b60008060009054906101000a900473ffffffffffffffffffffffffffffffffffffffff169050816000806101000a81548173ffffffffffffffffffffffffffffffffffffffff021916908373ffffffffffffffffffffffffffffffffffffffff1602179055508173ffffffffffffffffffffffffffffffffffffffff168173ffffffffffffffffffffffffffffffffffffffff167f8be0079c531659141344cd1fd0a4f28419497f9722a3daafe3b4186f6b6457e060405160405180910390a35050565b600033905090565b6000604051905090565b600080fd5b600080fd5b600073ffffffffffffffffffffffffffffffffffffffff82169050919050565b600061052d82610502565b9050919050565b61053d81610522565b811461054857600080fd5b50565b60008135905061055a81610534565b92915050565b600060208284031215610576576105756104f8565b5b60006105848482850161054b565b91505092915050565b600081519050919050565b600082825260208201905092915050565b6000819050602082019050919050565b6000819050919050565b6105cc816105b9565b82525050565b60006105de83836105c3565b60208301905092915050565b6000602082019050919050565b60006106028261058d565b61060c8185610598565b9350610617836105a9565b8060005b8381101561064857815161062f88826105d2565b975061063a836105ea565b92505060018101905061061b565b5085935050505092915050565b6000602082019050818103600083015261066f81846105f7565b905092915050565b61068081610522565b82525050565b600060208201905061069b6000830184610677565b92915050565b600080fd5b6000601f19601f8301169050919050565b7f4e487b7100000000000000000000000000000000000000000000000000000000600052604160045260246000fd5b6106ef826106a6565b810181811067ffffffffffffffff8211171561070e5761070d6106b7565b5b80604052505050565b60006107216104ee565b905061072d82826106e6565b919050565b600067ffffffffffffffff82111561074d5761074c6106b7565b5b602082029050602081019050919050565b600080fd5b61076c816105b9565b811461077757600080fd5b50565b60008135905061078981610763565b92915050565b60006107a261079d84610732565b610717565b905080838252602082019050602084028301858111156107c5576107c461075e565b5b835b818110156107ee57806107da888261077a565b8452602084019350506020810190506107c7565b5050509392505050565b600082601f83011261080d5761080c6106a1565b5b813561081d84826020860161078f565b91505092915050565b6000806040838503121561083d5761083c6104f8565b5b600083013567ffffffffffffffff81111561085b5761085a6104fd565b5b610867858286016107f8565b92505060206108788582860161054b565b9150509250929050565b7f4e487b7100000000000000000000000000000000000000000000000000000000600052603260045260246000fd5b6108ba816105b9565b82525050565b60006060820190506108d56000830186610677565b6108e26020830185610677565b6108ef60408301846108b1565b94935050505056fea2646970667358221220bdb497edcde1d4bc71f693dfcf008e13f1128d146e48c5c944681fecea6faa5164736f6c63430008140033",
  "linkReferences": {},
  "deployedLinkReferences": {}
}