{
  "_format": "hh-sol-artifact-1",
  "contractName": "Gambulls",
  "sourceName": "contracts/Gambulls.sol",
  "abi": [
    {
      "inputs": [
        {
          "internalType": "string",
          "name": "_name",
          "type": "string"
        },
        {
          "internalType": "string",
          "name": "_symbol",
          "type": "string"
        },
        {
          "internalType": "address[]",
          "name": "owners",
          "type": "address[]"
        }
      ],
      "stateMutability": "nonpayable",
      "type": "constructor"
    },
    {
      "inputs": [],
      "name": "ApprovalCallerNotOwnerNorApproved",
      "type": "error"
    },
    {
      "inputs": [],
      "name": "ApprovalQueryForNonexistentToken",
      "type": "error"
    },
    {
      "inputs": [],
      "name": "BalanceQueryForZeroAddress",
      "type": "error"
    },
    {
      "inputs": [],
      "name": "MintERC2309QuantityExceedsLimit",
      "type": "error"
    },
    {
      "inputs": [],
      "name": "MintToZeroAddress",
      "type": "error"
    },
    {
      "inputs": [],
      "name": "MintZeroQuantity",
      "type": "error"
    },
    {
      "inputs": [],
      "name": "OwnerQueryForNonexistentToken",
      "type": "error"
    },
    {
      "inputs": [],
      "name": "OwnershipNotInitializedForExtraData",
      "type": "error"
    },
    {
      "inputs": [],
      "name": "TransferCallerNotOwnerNorApproved",
      "type": "error"
    },
    {
      "inputs": [],
      "name": "TransferFromIncorrectOwner",
      "type": "error"
    },
    {
      "inputs": [],
      "name": "TransferToNonERC721ReceiverImplementer",
      "type": "error"
    },
    {
      "inputs": [],
      "name": "TransferToZeroAddress",
      "type": "error"
    },
    {
      "inputs": [],
      "name": "URIQueryForNonexistentToken",
      "type": "error"
    },
    {
      "anonymous": false,
      "inputs": [
        {
          "indexed": true,
          "internalType": "address",
          "name": "owner",
          "type": "address"
        },
        {
          "indexed": true,
          "internalType": "address",
          "name": "approved",
          "type": "address"
        },
        {
          "indexed": true,
          "internalType": "uint256",
          "name": "tokenId",
          "type": "uint256"
        }
      ],
      "name": "Approval",
      "type": "event"
    },
    {
      "anonymous": false,
      "inputs": [
        {
          "indexed": true,
          "internalType": "address",
          "name": "owner",
          "type": "address"
        },
        {
          "indexed": true,
          "internalType": "address",
          "name": "operator",
          "type": "address"
        },
        {
          "indexed": false,
          "internalType": "bool",
          "name": "approved",
          "type": "bool"
        }
      ],
      "name": "ApprovalForAll",
      "type": "event"
    },
    {
      "anonymous": false,
      "inputs": [
        {
          "indexed": true,
          "internalType": "uint256",
          "name": "fromTokenId",
          "type": "uint256"
        },
        {
          "indexed": false,
          "internalType": "uint256",
          "name": "toTokenId",
          "type": "uint256"
        },
        {
          "indexed": true,
          "internalType": "address",
          "name": "from",
          "type": "address"
        },
        {
          "indexed": true,
          "internalType": "address",
          "name": "to",
          "type": "address"
        }
      ],
      "name": "ConsecutiveTransfer",
      "type": "event"
    },
    {
      "anonymous": false,
      "inputs": [
        {
          "indexed": true,
          "internalType": "address",
          "name": "from",
          "type": "address"
        },
        {
          "indexed": true,
          "internalType": "address",
          "name": "to",
          "type": "address"
        },
        {
          "indexed": true,
          "internalType": "uint256",
          "name": "tokenId",
          "type": "uint256"
        }
      ],
      "name": "Transfer",
      "type": "event"
    },
    {
      "inputs": [
        {
          "internalType": "address",
          "name": "to",
          "type": "address"
        },
        {
          "internalType": "uint256",
          "name": "tokenId",
          "type": "uint256"
        }
      ],
      "name": "approve",
      "outputs": [],
      "stateMutability": "payable",
      "type": "function"
    },
    {
      "inputs": [
        {
          "internalType": "address",
          "name": "owner",
          "type": "address"
        }
      ],
      "name": "balanceOf",
      "outputs": [
        {
          "internalType": "uint256",
          "name": "",
          "type": "uint256"
        }
      ],
      "stateMutability": "view",
      "type": "function"
    },
    {
      "inputs": [
        {
          "internalType": "uint256",
          "name": "tokenId",
          "type": "uint256"
        }
      ],
      "name": "burn",
      "outputs": [],
      "stateMutability": "nonpayable",
      "type": "function"
    },
    {
      "inputs": [
        {
          "internalType": "uint256",
          "name": "tokenId",
          "type": "uint256"
        }
      ],
      "name": "getApproved",
      "outputs": [
        {
          "internalType": "address",
          "name": "",
          "type": "address"
        }
      ],
      "stateMutability": "view",
      "type": "function"
    },
    {
      "inputs": [
        {
          "internalType": "address",
          "name": "wallet",
          "type": "address"
        }
      ],
      "name": "getStakedNfts",
      "outputs": [
        {
          "components": [
            {
              "internalType": "int256",
              "name": "stakedAt",
              "type": "int256"
            },
            {
              "internalType": "uint256",
              "name": "tokenId",
              "type": "uint256"
            },
            {
              "internalType": "bool",
              "name": "isStaked",
              "type": "bool"
            }
          ],
          "internalType": "struct Gambulls.StakingData[]",
          "name": "",
          "type": "tuple[]"
        }
      ],
      "stateMutability": "view",
      "type": "function"
    },
    {
      "inputs": [
        {
          "internalType": "address",
          "name": "owner",
          "type": "address"
        },
        {
          "internalType": "address",
          "name": "operator",
          "type": "address"
        }
      ],
      "name": "isApprovedForAll",
      "outputs": [
        {
          "internalType": "bool",
          "name": "",
          "type": "bool"
        }
      ],
      "stateMutability": "view",
      "type": "function"
    },
    {
      "inputs": [
        {
          "internalType": "address",
          "name": "receiver",
          "type": "address"
        },
        {
          "internalType": "uint256[]",
          "name": "polygonIds",
          "type": "uint256[]"
        }
      ],
      "name": "mintNfts",
      "outputs": [],
      "stateMutability": "payable",
      "type": "function"
    },
    {
      "inputs": [],
      "name": "name",
      "outputs": [
        {
          "internalType": "string",
          "name": "",
          "type": "string"
        }
      ],
      "stateMutability": "view",
      "type": "function"
    },
    {
      "inputs": [
        {
          "internalType": "uint256",
          "name": "tokenId",
          "type": "uint256"
        }
      ],
      "name": "ownerOf",
      "outputs": [
        {
          "internalType": "address",
          "name": "",
          "type": "address"
        }
      ],
      "stateMutability": "view",
      "type": "function"
    },
    {
      "inputs": [
        {
          "internalType": "address",
          "name": "from",
          "type": "address"
        },
        {
          "internalType": "address",
          "name": "to",
          "type": "address"
        },
        {
          "internalType": "uint256",
          "name": "tokenId",
          "type": "uint256"
        }
      ],
      "name": "safeTransferFrom",
      "outputs": [],
      "stateMutability": "payable",
      "type": "function"
    },
    {
      "inputs": [
        {
          "internalType": "address",
          "name": "from",
          "type": "address"
        },
        {
          "internalType": "address",
          "name": "to",
          "type": "address"
        },
        {
          "internalType": "uint256",
          "name": "tokenId",
          "type": "uint256"
        },
        {
          "internalType": "bytes",
          "name": "_data",
          "type": "bytes"
        }
      ],
      "name": "safeTransferFrom",
      "outputs": [],
      "stateMutability": "payable",
      "type": "function"
    },
    {
      "inputs": [
        {
          "internalType": "address",
          "name": "operator",
          "type": "address"
        },
        {
          "internalType": "bool",
          "name": "approved",
          "type": "bool"
        }
      ],
      "name": "setApprovalForAll",
      "outputs": [],
      "stateMutability": "nonpayable",
      "type": "function"
    },
    {
      "inputs": [
        {
          "internalType": "uint256[]",
          "name": "tokenIds",
          "type": "uint256[]"
        }
      ],
      "name": "stakeNft",
      "outputs": [],
      "stateMutability": "nonpayable",
      "type": "function"
    },
    {
      "inputs": [
        {
          "internalType": "bytes4",
          "name": "interfaceId",
          "type": "bytes4"
        }
      ],
      "name": "supportsInterface",
      "outputs": [
        {
          "internalType": "bool",
          "name": "",
          "type": "bool"
        }
      ],
      "stateMutability": "view",
      "type": "function"
    },
    {
      "inputs": [],
      "name": "symbol",
      "outputs": [
        {
          "internalType": "string",
          "name": "",
          "type": "string"
        }
      ],
      "stateMutability": "view",
      "type": "function"
    },
    {
      "inputs": [
        {
          "internalType": "uint256",
          "name": "tokenId",
          "type": "uint256"
        }
      ],
      "name": "tokenURI",
      "outputs": [
        {
          "internalType": "string",
          "name": "",
          "type": "string"
        }
      ],
      "stateMutability": "view",
      "type": "function"
    },
    {
      "inputs": [],
      "name": "totalSupply",
      "outputs": [
        {
          "internalType": "uint256",
          "name": "",
          "type": "uint256"
        }
      ],
      "stateMutability": "view",
      "type": "function"
    },
    {
      "inputs": [
        {
          "internalType": "address",
          "name": "from",
          "type": "address"
        },
        {
          "internalType": "address",
          "name": "to",
          "type": "address"
        },
        {
          "internalType": "uint256",
          "name": "tokenId",
          "type": "uint256"
        }
      ],
      "name": "transferFrom",
      "outputs": [],
      "stateMutability": "payable",
      "type": "function"
    },
    {
      "inputs": [],
      "name": "unstakeAll",
      "outputs": [],
      "stateMutability": "nonpayable",
      "type": "function"
    },
    {
      "inputs": [
        {
          "internalType": "uint256[]",
          "name": "tokenIds",
          "type": "uint256[]"
        }
      ],
      "name": "withdraw",
      "outputs": [],
      "stateMutability": "nonpayable",
      "type": "function"
    }
  ],
  "bytecode": "0x60806040523480156200001157600080fd5b50604051620035093803806200350983398181016040528101906200003791906200041d565b828281600290816200004a919062000721565b5080600390816200005c919062000721565b506200006d6200009760201b60201c565b600081905550505080600890805190602001906200008d9291906200009c565b5050505062000808565b600090565b82805482825590600052602060002090810192821562000118579160200282015b82811115620001175782518260006101000a81548173ffffffffffffffffffffffffffffffffffffffff021916908373ffffffffffffffffffffffffffffffffffffffff16021790555091602001919060010190620000bd565b5b5090506200012791906200012b565b5090565b5b80821115620001465760008160009055506001016200012c565b5090565b6000604051905090565b600080fd5b600080fd5b600080fd5b600080fd5b6000601f19601f8301169050919050565b7f4e487b7100000000000000000000000000000000000000000000000000000000600052604160045260246000fd5b620001b38262000168565b810181811067ffffffffffffffff82111715620001d557620001d462000179565b5b80604052505050565b6000620001ea6200014a565b9050620001f88282620001a8565b919050565b600067ffffffffffffffff8211156200021b576200021a62000179565b5b620002268262000168565b9050602081019050919050565b60005b838110156200025357808201518184015260208101905062000236565b60008484015250505050565b6000620002766200027084620001fd565b620001de565b90508281526020810184848401111562000295576200029462000163565b5b620002a284828562000233565b509392505050565b600082601f830112620002c257620002c16200015e565b5b8151620002d48482602086016200025f565b91505092915050565b600067ffffffffffffffff821115620002fb57620002fa62000179565b5b602082029050602081019050919050565b600080fd5b600073ffffffffffffffffffffffffffffffffffffffff82169050919050565b60006200033e8262000311565b9050919050565b620003508162000331565b81146200035c57600080fd5b50565b600081519050620003708162000345565b92915050565b60006200038d6200038784620002dd565b620001de565b90508083825260208201905060208402830185811115620003b357620003b26200030c565b5b835b81811015620003e05780620003cb88826200035f565b845260208401935050602081019050620003b5565b5050509392505050565b600082601f8301126200040257620004016200015e565b5b81516200041484826020860162000376565b91505092915050565b60008060006060848603121562000439576200043862000154565b5b600084015167ffffffffffffffff8111156200045a576200045962000159565b5b6200046886828701620002aa565b935050602084015167ffffffffffffffff8111156200048c576200048b62000159565b5b6200049a86828701620002aa565b925050604084015167ffffffffffffffff811115620004be57620004bd62000159565b5b620004cc86828701620003ea565b9150509250925092565b600081519050919050565b7f4e487b7100000000000000000000000000000000000000000000000000000000600052602260045260246000fd5b600060028204905060018216806200052957607f821691505b6020821081036200053f576200053e620004e1565b5b50919050565b60008190508160005260206000209050919050565b60006020601f8301049050919050565b600082821b905092915050565b600060088302620005a97fffffffffffffffffffffffffffffffffffffffffffffffffffffffffffffffff826200056a565b620005b586836200056a565b95508019841693508086168417925050509392505050565b6000819050919050565b6000819050919050565b600062000602620005fc620005f684620005cd565b620005d7565b620005cd565b9050919050565b6000819050919050565b6200061e83620005e1565b620006366200062d8262000609565b84845462000577565b825550505050565b600090565b6200064d6200063e565b6200065a81848462000613565b505050565b5b8181101562000682576200067660008262000643565b60018101905062000660565b5050565b601f821115620006d1576200069b8162000545565b620006a6846200055a565b81016020851015620006b6578190505b620006ce620006c5856200055a565b8301826200065f565b50505b505050565b600082821c905092915050565b6000620006f660001984600802620006d6565b1980831691505092915050565b6000620007118383620006e3565b9150826002028217905092915050565b6200072c82620004d6565b67ffffffffffffffff81111562000748576200074762000179565b5b62000754825462000510565b6200076182828562000686565b600060209050601f83116001811462000799576000841562000784578287015190505b62000790858262000703565b86555062000800565b601f198416620007a98662000545565b60005b82811015620007d357848901518255600182019150602085019450602081019050620007ac565b86831015620007f35784890151620007ef601f891682620006e3565b8355505b6001600288020188555050505b505050505050565b612cf180620008186000396000f3fe60806040526004361061011f5760003560e01c806342966c68116100a0578063a22cb46511610064578063a22cb4651461039b578063b88d4fde146103c4578063c87b56dd146103e0578063e985e9c51461041d578063feece0ab1461045a5761011f565b806342966c68146102a45780636352211e146102cd57806370a082311461030a57806395d89b4114610347578063983d95ce146103725761011f565b80631f7bef8d116100e75780631f7bef8d1461021057806323b872dd1461022c57806335322f37146102485780634017cdce1461025f57806342842e0e146102885761011f565b806301ffc9a71461012457806306fdde0314610161578063081812fc1461018c578063095ea7b3146101c957806318160ddd146101e5575b600080fd5b34801561013057600080fd5b5061014b60048036038101906101469190612148565b610497565b6040516101589190612190565b60405180910390f35b34801561016d57600080fd5b50610176610529565b604051610183919061223b565b60405180910390f35b34801561019857600080fd5b506101b360048036038101906101ae9190612293565b6105bb565b6040516101c09190612301565b60405180910390f35b6101e360048036038101906101de9190612348565b61063a565b005b3480156101f157600080fd5b506101fa61077e565b6040516102079190612397565b60405180910390f35b61022a60048036038101906102259190612417565b610795565b005b61024660048036038101906102419190612477565b6109a1565b005b34801561025457600080fd5b5061025d610cc3565b005b34801561026b57600080fd5b5061028660048036038101906102819190612608565b610f68565b005b6102a2600480360381019061029d9190612477565b6110da565b005b3480156102b057600080fd5b506102cb60048036038101906102c69190612293565b6110fa565b005b3480156102d957600080fd5b506102f460048036038101906102ef9190612293565b611146565b6040516103019190612301565b60405180910390f35b34801561031657600080fd5b50610331600480360381019061032c9190612651565b611158565b60405161033e9190612397565b60405180910390f35b34801561035357600080fd5b5061035c611210565b604051610369919061223b565b60405180910390f35b34801561037e57600080fd5b5061039960048036038101906103949190612608565b6112a2565b005b3480156103a757600080fd5b506103c260048036038101906103bd91906126aa565b6115ab565b005b6103de60048036038101906103d9919061279f565b6116b6565b005b3480156103ec57600080fd5b5061040760048036038101906104029190612293565b611729565b604051610414919061223b565b60405180910390f35b34801561042957600080fd5b50610444600480360381019061043f9190612822565b61177c565b6040516104519190612190565b60405180910390f35b34801561046657600080fd5b50610481600480360381019061047c9190612651565b611810565b60405161048e919061298a565b60405180910390f35b60006301ffc9a760e01b827bffffffffffffffffffffffffffffffffffffffffffffffffffffffff191614806104f257506380ac58cd60e01b827bffffffffffffffffffffffffffffffffffffffffffffffffffffffff1916145b806105225750635b5e139f60e01b827bffffffffffffffffffffffffffffffffffffffffffffffffffffffff1916145b9050919050565b606060028054610538906129db565b80601f0160208091040260200160405190810160405280929190818152602001828054610564906129db565b80156105b15780601f10610586576101008083540402835291602001916105b1565b820191906000526020600020905b81548152906001019060200180831161059457829003601f168201915b5050505050905090565b60006105c6826118dd565b6105fc576040517fcf4700e400000000000000000000000000000000000000000000000000000000815260040160405180910390fd5b6006600083815260200190815260200160002060000160009054906101000a900473ffffffffffffffffffffffffffffffffffffffff169050919050565b600061064582611146565b90508073ffffffffffffffffffffffffffffffffffffffff1661066661193c565b73ffffffffffffffffffffffffffffffffffffffff16146106c9576106928161068d61193c565b61177c565b6106c8576040517fcfb3b94200000000000000000000000000000000000000000000000000000000815260040160405180910390fd5b5b826006600084815260200190815260200160002060000160006101000a81548173ffffffffffffffffffffffffffffffffffffffff021916908373ffffffffffffffffffffffffffffffffffffffff160217905550818373ffffffffffffffffffffffffffffffffffffffff168273ffffffffffffffffffffffffffffffffffffffff167f8c5be1e5ebec7d5bd14f71427d1e84f3dd0314c0f7b2291e5b200ac8c7c3b92560405160405180910390a4505050565b6000610788611944565b6001546000540303905090565b6000805b600880549050811015610829573373ffffffffffffffffffffffffffffffffffffffff16600882815481106107d1576107d0612a0c565b5b9060005260206000200160009054906101000a900473ffffffffffffffffffffffffffffffffffffffff1673ffffffffffffffffffffffffffffffffffffffff160361081c57600191505b8080600101915050610799565b508061086a576040517f08c379a000000000000000000000000000000000000000000000000000000000815260040161086190612a87565b60405180910390fd5b6000838390509050600061087c611949565b905060005b8281101561098b5785858281811061089c5761089b612a0c565b5b90506020020135600a6000848152602001908152602001600020819055508080600101915050600b60008873ffffffffffffffffffffffffffffffffffffffff1673ffffffffffffffffffffffffffffffffffffffff1681526020019081526020016000206040518060600160405280428152602001848152602001600115158152509080600181540180825580915050600190039060005260206000209060030201600090919091909150600082015181600001556020820151816001015560408201518160020160006101000a81548160ff02191690831515021790555050508180600101925050610881565b50505061099b3084849050611952565b50505050565b60006109ac82611b0d565b90508373ffffffffffffffffffffffffffffffffffffffff168173ffffffffffffffffffffffffffffffffffffffff1614610a13576040517fa114810000000000000000000000000000000000000000000000000000000000815260040160405180910390fd5b600080610a1f84611bd9565b91509150610a358187610a3061193c565b611c00565b610a8157610a4a86610a4561193c565b61177c565b610a80576040517f59c896be00000000000000000000000000000000000000000000000000000000815260040160405180910390fd5b5b600073ffffffffffffffffffffffffffffffffffffffff168573ffffffffffffffffffffffffffffffffffffffff1603610ae7576040517fea553b3400000000000000000000000000000000000000000000000000000000815260040160405180910390fd5b610af48686866001611c44565b8015610aff57600082555b600560008773ffffffffffffffffffffffffffffffffffffffff1673ffffffffffffffffffffffffffffffffffffffff168152602001908152602001600020600081546001900391905081905550600560008673ffffffffffffffffffffffffffffffffffffffff1673ffffffffffffffffffffffffffffffffffffffff1681526020019081526020016000206000815460010191905081905550610bcd85610ba9888887611c4a565b7c020000000000000000000000000000000000000000000000000000000017611c72565b600460008681526020019081526020016000208190555060007c0200000000000000000000000000000000000000000000000000000000841603610c535760006001850190506000600460008381526020019081526020016000205403610c51576000548114610c50578360046000838152602001908152602001600020819055505b5b505b838573ffffffffffffffffffffffffffffffffffffffff168773ffffffffffffffffffffffffffffffffffffffff167fddf252ad1be2c89b69c2b068fc378daa952ba7f163c4a11628f55a4df523b3ef60405160405180910390a4610cbb8686866001611c9d565b505050505050565b6000600b60003373ffffffffffffffffffffffffffffffffffffffff1673ffffffffffffffffffffffffffffffffffffffff168152602001908152602001600020805480602002602001604051908101604052809291908181526020016000905b82821015610d85578382906000526020600020906003020160405180606001604052908160008201548152602001600182015481526020016002820160009054906101000a900460ff16151515158152505081526020019060010190610d24565b505050509050600081519050600030905060005b82811015610f6257838181518110610db457610db3612a0c565b5b60200260200101516040015115610f55576000600b60003373ffffffffffffffffffffffffffffffffffffffff1673ffffffffffffffffffffffffffffffffffffffff1681526020019081526020016000208281548110610e1857610e17612a0c565b5b906000526020600020906003020160020160006101000a81548160ff0219169083151502179055507fffffffffffffffffffffffffffffffffffffffffffffffffffffffffffffffff600b60003373ffffffffffffffffffffffffffffffffffffffff1673ffffffffffffffffffffffffffffffffffffffff1681526020019081526020016000208281548110610eb257610eb1612a0c565b5b9060005260206000209060030201600001819055508173ffffffffffffffffffffffffffffffffffffffff166342842e0e3033878581518110610ef857610ef7612a0c565b5b6020026020010151602001516040518463ffffffff1660e01b8152600401610f2293929190612aa7565b600060405180830381600087803b158015610f3c57600080fd5b505af1158015610f50573d6000803e3d6000fd5b505050505b8080600101915050610d99565b50505050565b60005b81518110156110d6573373ffffffffffffffffffffffffffffffffffffffff16610fae838381518110610fa157610fa0612a0c565b5b6020026020010151611146565b73ffffffffffffffffffffffffffffffffffffffff1614610fce57600080fd5b600b60003373ffffffffffffffffffffffffffffffffffffffff1673ffffffffffffffffffffffffffffffffffffffff168152602001908152602001600020604051806060016040528042815260200184848151811061103157611030612a0c565b5b60200260200101518152602001600115158152509080600181540180825580915050600190039060005260206000209060030201600090919091909150600082015181600001556020820151816001015560408201518160020160006101000a81548160ff02191690831515021790555050506110c933308484815181106110bc576110bb612a0c565b5b60200260200101516109a1565b8080600101915050610f6b565b5050565b6110f5838383604051806020016040528060008152506116b6565b505050565b3373ffffffffffffffffffffffffffffffffffffffff1661111a82611146565b73ffffffffffffffffffffffffffffffffffffffff161461113a57600080fd5b61114381611ca3565b50565b600061115182611b0d565b9050919050565b60008073ffffffffffffffffffffffffffffffffffffffff168273ffffffffffffffffffffffffffffffffffffffff16036111bf576040517f8f4eb60400000000000000000000000000000000000000000000000000000000815260040160405180910390fd5b67ffffffffffffffff600560008473ffffffffffffffffffffffffffffffffffffffff1673ffffffffffffffffffffffffffffffffffffffff16815260200190815260200160002054169050919050565b60606003805461121f906129db565b80601f016020809104026020016040519081016040528092919081815260200182805461124b906129db565b80156112985780601f1061126d57610100808354040283529160200191611298565b820191906000526020600020905b81548152906001019060200180831161127b57829003601f168201915b5050505050905090565b6000600b60003373ffffffffffffffffffffffffffffffffffffffff1673ffffffffffffffffffffffffffffffffffffffff168152602001908152602001600020805480602002602001604051908101604052809291908181526020016000905b82821015611364578382906000526020600020906003020160405180606001604052908160008201548152602001600182015481526020016002820160009054906101000a900460ff16151515158152505081526020019060010190611303565b505050509050600081519050600030905060008451905060005b818110156115a35760005b84811015611595578682815181106113a4576113a3612a0c565b5b60200260200101518682815181106113bf576113be612a0c565b5b6020026020010151602001511480156113f357508581815181106113e6576113e5612a0c565b5b6020026020010151604001515b15611588576000600b60003373ffffffffffffffffffffffffffffffffffffffff1673ffffffffffffffffffffffffffffffffffffffff168152602001908152602001600020828154811061144b5761144a612a0c565b5b906000526020600020906003020160020160006101000a81548160ff0219169083151502179055507fffffffffffffffffffffffffffffffffffffffffffffffffffffffffffffffff600b60003373ffffffffffffffffffffffffffffffffffffffff1673ffffffffffffffffffffffffffffffffffffffff16815260200190815260200160002082815481106114e5576114e4612a0c565b5b9060005260206000209060030201600001819055508373ffffffffffffffffffffffffffffffffffffffff166342842e0e30338a868151811061152b5761152a612a0c565b5b60200260200101516040518463ffffffff1660e01b815260040161155193929190612aa7565b600060405180830381600087803b15801561156b57600080fd5b505af115801561157f573d6000803e3d6000fd5b50505050611595565b8080600101915050611389565b50808060010191505061137e565b505050505050565b80600760006115b861193c565b73ffffffffffffffffffffffffffffffffffffffff1673ffffffffffffffffffffffffffffffffffffffff16815260200190815260200160002060008473ffffffffffffffffffffffffffffffffffffffff1673ffffffffffffffffffffffffffffffffffffffff16815260200190815260200160002060006101000a81548160ff0219169083151502179055508173ffffffffffffffffffffffffffffffffffffffff1661166561193c565b73ffffffffffffffffffffffffffffffffffffffff167f17307eab39ab6107e8899845ad3d59bd9653f200f220920489ca2b5937696c31836040516116aa9190612190565b60405180910390a35050565b6116c18484846109a1565b60008373ffffffffffffffffffffffffffffffffffffffff163b14611723576116ec84848484611cb1565b611722576040517fd1a57ed600000000000000000000000000000000000000000000000000000000815260040160405180910390fd5b5b50505050565b60606000600a600084815260200190815260200160002054905061174b611e01565b61175482611e21565b604051602001611765929190612b66565b604051602081830303815290604052915050919050565b6000600760008473ffffffffffffffffffffffffffffffffffffffff1673ffffffffffffffffffffffffffffffffffffffff16815260200190815260200160002060008373ffffffffffffffffffffffffffffffffffffffff1673ffffffffffffffffffffffffffffffffffffffff16815260200190815260200160002060009054906101000a900460ff16905092915050565b6060600b60008373ffffffffffffffffffffffffffffffffffffffff1673ffffffffffffffffffffffffffffffffffffffff168152602001908152602001600020805480602002602001604051908101604052809291908181526020016000905b828210156118d2578382906000526020600020906003020160405180606001604052908160008201548152602001600182015481526020016002820160009054906101000a900460ff16151515158152505081526020019060010190611871565b505050509050919050565b6000816118e8611944565b111580156118f7575060005482105b8015611935575060007c0100000000000000000000000000000000000000000000000000000000600460008581526020019081526020016000205416145b9050919050565b600033905090565b600090565b60008054905090565b60008054905060008203611992576040517fb562e8dd00000000000000000000000000000000000000000000000000000000815260040160405180910390fd5b61199f6000848385611c44565b600160406001901b178202600560008573ffffffffffffffffffffffffffffffffffffffff1673ffffffffffffffffffffffffffffffffffffffff16815260200190815260200160002060008282540192505081905550611a1683611a076000866000611c4a565b611a1085611e71565b17611c72565b6004600083815260200190815260200160002081905550600080838301905073ffffffffffffffffffffffffffffffffffffffff85169150828260007fddf252ad1be2c89b69c2b068fc378daa952ba7f163c4a11628f55a4df523b3ef600080a4600183015b818114611ab757808360007fddf252ad1be2c89b69c2b068fc378daa952ba7f163c4a11628f55a4df523b3ef600080a4600181019050611a7c565b5060008203611af2576040517f2e07630000000000000000000000000000000000000000000000000000000000815260040160405180910390fd5b806000819055505050611b086000848385611c9d565b505050565b60008082905080611b1c611944565b11611ba257600054811015611ba15760006004600083815260200190815260200160002054905060007c0100000000000000000000000000000000000000000000000000000000821603611b9f575b60008103611b95576004600083600190039350838152602001908152602001600020549050611b6b565b8092505050611bd4565b505b5b6040517fdf2d9b4200000000000000000000000000000000000000000000000000000000815260040160405180910390fd5b919050565b60008060006006600085815260200190815260200160002090508092508254915050915091565b600073ffffffffffffffffffffffffffffffffffffffff8316925073ffffffffffffffffffffffffffffffffffffffff821691508382148383141790509392505050565b50505050565b60008060e883901c905060e8611c61868684611e81565b62ffffff16901b9150509392505050565b600073ffffffffffffffffffffffffffffffffffffffff83169250814260a01b178317905092915050565b50505050565b611cae816000611e8a565b50565b60008373ffffffffffffffffffffffffffffffffffffffff1663150b7a02611cd761193c565b8786866040518563ffffffff1660e01b8152600401611cf99493929190612bea565b6020604051808303816000875af1925050508015611d3557506040513d601f19601f82011682018060405250810190611d329190612c4b565b60015b611dae573d8060008114611d65576040519150601f19603f3d011682016040523d82523d6000602084013e611d6a565b606091505b506000815103611da6576040517fd1a57ed600000000000000000000000000000000000000000000000000000000815260040160405180910390fd5b805181602001fd5b63150b7a0260e01b7bffffffffffffffffffffffffffffffffffffffffffffffffffffffff1916817bffffffffffffffffffffffffffffffffffffffffffffffffffffffff191614915050949350505050565b6060604051806080016040528060438152602001612c7960439139905090565b606060a060405101806040526020810391506000825281835b600115611e5c57600184039350600a81066030018453600a8104905080611e3a575b50828103602084039350808452505050919050565b60006001821460e11b9050919050565b60009392505050565b6000611e9583611b0d565b90506000819050600080611ea886611bd9565b915091508415611f1157611ec48184611ebf61193c565b611c00565b611f1057611ed983611ed461193c565b61177c565b611f0f576040517f59c896be00000000000000000000000000000000000000000000000000000000815260040160405180910390fd5b5b5b611f1f836000886001611c44565b8015611f2a57600082555b600160806001901b03600560008573ffffffffffffffffffffffffffffffffffffffff1673ffffffffffffffffffffffffffffffffffffffff16815260200190815260200160002060008282540192505081905550611fd283611f8f85600088611c4a565b7c02000000000000000000000000000000000000000000000000000000007c01000000000000000000000000000000000000000000000000000000001717611c72565b600460008881526020019081526020016000208190555060007c02000000000000000000000000000000000000000000000000000000008516036120585760006001870190506000600460008381526020019081526020016000205403612056576000548114612055578460046000838152602001908152602001600020819055505b5b505b85600073ffffffffffffffffffffffffffffffffffffffff168473ffffffffffffffffffffffffffffffffffffffff167fddf252ad1be2c89b69c2b068fc378daa952ba7f163c4a11628f55a4df523b3ef60405160405180910390a46120c2836000886001611c9d565b600160008154809291906001019190505550505050505050565b6000604051905090565b600080fd5b600080fd5b60007fffffffff0000000000000000000000000000000000000000000000000000000082169050919050565b612125816120f0565b811461213057600080fd5b50565b6000813590506121428161211c565b92915050565b60006020828403121561215e5761215d6120e6565b5b600061216c84828501612133565b91505092915050565b60008115159050919050565b61218a81612175565b82525050565b60006020820190506121a56000830184612181565b92915050565b600081519050919050565b600082825260208201905092915050565b60005b838110156121e55780820151818401526020810190506121ca565b60008484015250505050565b6000601f19601f8301169050919050565b600061220d826121ab565b61221781856121b6565b93506122278185602086016121c7565b612230816121f1565b840191505092915050565b600060208201905081810360008301526122558184612202565b905092915050565b6000819050919050565b6122708161225d565b811461227b57600080fd5b50565b60008135905061228d81612267565b92915050565b6000602082840312156122a9576122a86120e6565b5b60006122b78482850161227e565b91505092915050565b600073ffffffffffffffffffffffffffffffffffffffff82169050919050565b60006122eb826122c0565b9050919050565b6122fb816122e0565b82525050565b600060208201905061231660008301846122f2565b92915050565b612325816122e0565b811461233057600080fd5b50565b6000813590506123428161231c565b92915050565b6000806040838503121561235f5761235e6120e6565b5b600061236d85828601612333565b925050602061237e8582860161227e565b9150509250929050565b6123918161225d565b82525050565b60006020820190506123ac6000830184612388565b92915050565b600080fd5b600080fd5b600080fd5b60008083601f8401126123d7576123d66123b2565b5b8235905067ffffffffffffffff8111156123f4576123f36123b7565b5b6020830191508360208202830111156124105761240f6123bc565b5b9250929050565b6000806000604084860312156124305761242f6120e6565b5b600061243e86828701612333565b935050602084013567ffffffffffffffff81111561245f5761245e6120eb565b5b61246b868287016123c1565b92509250509250925092565b6000806000606084860312156124905761248f6120e6565b5b600061249e86828701612333565b93505060206124af86828701612333565b92505060406124c08682870161227e565b9150509250925092565b7f4e487b7100000000000000000000000000000000000000000000000000000000600052604160045260246000fd5b612502826121f1565b810181811067ffffffffffffffff82111715612521576125206124ca565b5b80604052505050565b60006125346120dc565b905061254082826124f9565b919050565b600067ffffffffffffffff8211156125605761255f6124ca565b5b602082029050602081019050919050565b600061258461257f84612545565b61252a565b905080838252602082019050602084028301858111156125a7576125a66123bc565b5b835b818110156125d057806125bc888261227e565b8452602084019350506020810190506125a9565b5050509392505050565b600082601f8301126125ef576125ee6123b2565b5b81356125ff848260208601612571565b91505092915050565b60006020828403121561261e5761261d6120e6565b5b600082013567ffffffffffffffff81111561263c5761263b6120eb565b5b612648848285016125da565b91505092915050565b600060208284031215612667576126666120e6565b5b600061267584828501612333565b91505092915050565b61268781612175565b811461269257600080fd5b50565b6000813590506126a48161267e565b92915050565b600080604083850312156126c1576126c06120e6565b5b60006126cf85828601612333565b92505060206126e085828601612695565b9150509250929050565b600080fd5b600067ffffffffffffffff82111561270a576127096124ca565b5b612713826121f1565b9050602081019050919050565b82818337600083830152505050565b600061274261273d846126ef565b61252a565b90508281526020810184848401111561275e5761275d6126ea565b5b612769848285612720565b509392505050565b600082601f830112612786576127856123b2565b5b813561279684826020860161272f565b91505092915050565b600080600080608085870312156127b9576127b86120e6565b5b60006127c787828801612333565b94505060206127d887828801612333565b93505060406127e98782880161227e565b925050606085013567ffffffffffffffff81111561280a576128096120eb565b5b61281687828801612771565b91505092959194509250565b60008060408385031215612839576128386120e6565b5b600061284785828601612333565b925050602061285885828601612333565b9150509250929050565b600081519050919050565b600082825260208201905092915050565b6000819050602082019050919050565b6000819050919050565b6128a18161288e565b82525050565b6128b08161225d565b82525050565b6128bf81612175565b82525050565b6060820160008201516128db6000850182612898565b5060208201516128ee60208501826128a7565b50604082015161290160408501826128b6565b50505050565b600061291383836128c5565b60608301905092915050565b6000602082019050919050565b600061293782612862565b612941818561286d565b935061294c8361287e565b8060005b8381101561297d5781516129648882612907565b975061296f8361291f565b925050600181019050612950565b5085935050505092915050565b600060208201905081810360008301526129a4818461292c565b905092915050565b7f4e487b7100000000000000000000000000000000000000000000000000000000600052602260045260246000fd5b600060028204905060018216806129f357607f821691505b602082108103612a0657612a056129ac565b5b50919050565b7f4e487b7100000000000000000000000000000000000000000000000000000000600052603260045260246000fd5b7f496e76616c6964206f776e657221000000000000000000000000000000000000600082015250565b6000612a71600e836121b6565b9150612a7c82612a3b565b602082019050919050565b60006020820190508181036000830152612aa081612a64565b9050919050565b6000606082019050612abc60008301866122f2565b612ac960208301856122f2565b612ad66040830184612388565b949350505050565b600081905092915050565b6000612af4826121ab565b612afe8185612ade565b9350612b0e8185602086016121c7565b80840191505092915050565b7f2e6a736f6e000000000000000000000000000000000000000000000000000000600082015250565b6000612b50600583612ade565b9150612b5b82612b1a565b600582019050919050565b6000612b728285612ae9565b9150612b7e8284612ae9565b9150612b8982612b43565b91508190509392505050565b600081519050919050565b600082825260208201905092915050565b6000612bbc82612b95565b612bc68185612ba0565b9350612bd68185602086016121c7565b612bdf816121f1565b840191505092915050565b6000608082019050612bff60008301876122f2565b612c0c60208301866122f2565b612c196040830185612388565b8181036060830152612c2b8184612bb1565b905095945050505050565b600081519050612c458161211c565b92915050565b600060208284031215612c6157612c606120e6565b5b6000612c6f84828501612c36565b9150509291505056fe697066733a2f2f626166796265696568787974363272326f356b79657467776d7a616f6c647337366737336f347832367a6f73776b3568366c68757271673361346d2fa2646970667358221220758feafc780ba9c709079c1f3598a1c2193469a66dc3d501a9987888f261d40864736f6c63430008140033",
  "linkReferences": {},
  "deployedLinkReferences": {}
}