{
  "_format": "hh-sol-artifact-1",
  "contractName": "Gambulls",
  "sourceName": "contracts/Gambulls.sol",
  "abi": [
    {
      "inputs": [
        {
          "internalType": "string",
          "name": "_name",
          "type": "string"
        },
        {
          "internalType": "string",
          "name": "_symbol",
          "type": "string"
        }
      ],
      "stateMutability": "nonpayable",
      "type": "constructor"
    },
    {
      "inputs": [],
      "name": "ApprovalCallerNotOwnerNorApproved",
      "type": "error"
    },
    {
      "inputs": [],
      "name": "ApprovalQueryForNonexistentToken",
      "type": "error"
    },
    {
      "inputs": [],
      "name": "BalanceQueryForZeroAddress",
      "type": "error"
    },
    {
      "inputs": [],
      "name": "MintERC2309QuantityExceedsLimit",
      "type": "error"
    },
    {
      "inputs": [],
      "name": "MintToZeroAddress",
      "type": "error"
    },
    {
      "inputs": [],
      "name": "MintZeroQuantity",
      "type": "error"
    },
    {
      "inputs": [],
      "name": "OwnerQueryForNonexistentToken",
      "type": "error"
    },
    {
      "inputs": [],
      "name": "OwnershipNotInitializedForExtraData",
      "type": "error"
    },
    {
      "inputs": [],
      "name": "TransferCallerNotOwnerNorApproved",
      "type": "error"
    },
    {
      "inputs": [],
      "name": "TransferFromIncorrectOwner",
      "type": "error"
    },
    {
      "inputs": [],
      "name": "TransferToNonERC721ReceiverImplementer",
      "type": "error"
    },
    {
      "inputs": [],
      "name": "TransferToZeroAddress",
      "type": "error"
    },
    {
      "inputs": [],
      "name": "URIQueryForNonexistentToken",
      "type": "error"
    },
    {
      "anonymous": false,
      "inputs": [
        {
          "indexed": true,
          "internalType": "address",
          "name": "owner",
          "type": "address"
        },
        {
          "indexed": true,
          "internalType": "address",
          "name": "approved",
          "type": "address"
        },
        {
          "indexed": true,
          "internalType": "uint256",
          "name": "tokenId",
          "type": "uint256"
        }
      ],
      "name": "Approval",
      "type": "event"
    },
    {
      "anonymous": false,
      "inputs": [
        {
          "indexed": true,
          "internalType": "address",
          "name": "owner",
          "type": "address"
        },
        {
          "indexed": true,
          "internalType": "address",
          "name": "operator",
          "type": "address"
        },
        {
          "indexed": false,
          "internalType": "bool",
          "name": "approved",
          "type": "bool"
        }
      ],
      "name": "ApprovalForAll",
      "type": "event"
    },
    {
      "anonymous": false,
      "inputs": [
        {
          "indexed": true,
          "internalType": "uint256",
          "name": "fromTokenId",
          "type": "uint256"
        },
        {
          "indexed": false,
          "internalType": "uint256",
          "name": "toTokenId",
          "type": "uint256"
        },
        {
          "indexed": true,
          "internalType": "address",
          "name": "from",
          "type": "address"
        },
        {
          "indexed": true,
          "internalType": "address",
          "name": "to",
          "type": "address"
        }
      ],
      "name": "ConsecutiveTransfer",
      "type": "event"
    },
    {
      "anonymous": false,
      "inputs": [
        {
          "indexed": true,
          "internalType": "address",
          "name": "from",
          "type": "address"
        },
        {
          "indexed": true,
          "internalType": "address",
          "name": "to",
          "type": "address"
        },
        {
          "indexed": true,
          "internalType": "uint256",
          "name": "tokenId",
          "type": "uint256"
        }
      ],
      "name": "Transfer",
      "type": "event"
    },
    {
      "inputs": [
        {
          "internalType": "address",
          "name": "to",
          "type": "address"
        },
        {
          "internalType": "uint256",
          "name": "tokenId",
          "type": "uint256"
        }
      ],
      "name": "approve",
      "outputs": [],
      "stateMutability": "payable",
      "type": "function"
    },
    {
      "inputs": [
        {
          "internalType": "address",
          "name": "owner",
          "type": "address"
        }
      ],
      "name": "balanceOf",
      "outputs": [
        {
          "internalType": "uint256",
          "name": "",
          "type": "uint256"
        }
      ],
      "stateMutability": "view",
      "type": "function"
    },
    {
      "inputs": [
        {
          "internalType": "uint256",
          "name": "tokenId",
          "type": "uint256"
        }
      ],
      "name": "burn",
      "outputs": [],
      "stateMutability": "nonpayable",
      "type": "function"
    },
    {
      "inputs": [
        {
          "internalType": "uint256",
          "name": "tokenId",
          "type": "uint256"
        }
      ],
      "name": "getApproved",
      "outputs": [
        {
          "internalType": "address",
          "name": "",
          "type": "address"
        }
      ],
      "stateMutability": "view",
      "type": "function"
    },
    {
      "inputs": [
        {
          "internalType": "address",
          "name": "wallet",
          "type": "address"
        }
      ],
      "name": "getStakedNfts",
      "outputs": [
        {
          "components": [
            {
              "internalType": "int256",
              "name": "stakedAt",
              "type": "int256"
            },
            {
              "internalType": "uint256",
              "name": "tokenId",
              "type": "uint256"
            },
            {
              "internalType": "bool",
              "name": "isStaked",
              "type": "bool"
            }
          ],
          "internalType": "struct Gambulls.StakingData[]",
          "name": "",
          "type": "tuple[]"
        }
      ],
      "stateMutability": "view",
      "type": "function"
    },
    {
      "inputs": [
        {
          "internalType": "address",
          "name": "owner",
          "type": "address"
        },
        {
          "internalType": "address",
          "name": "operator",
          "type": "address"
        }
      ],
      "name": "isApprovedForAll",
      "outputs": [
        {
          "internalType": "bool",
          "name": "",
          "type": "bool"
        }
      ],
      "stateMutability": "view",
      "type": "function"
    },
    {
      "inputs": [
        {
          "internalType": "address",
          "name": "receiver",
          "type": "address"
        },
        {
          "internalType": "uint256[]",
          "name": "polygonIds",
          "type": "uint256[]"
        }
      ],
      "name": "mintNfts",
      "outputs": [],
      "stateMutability": "payable",
      "type": "function"
    },
    {
      "inputs": [],
      "name": "name",
      "outputs": [
        {
          "internalType": "string",
          "name": "",
          "type": "string"
        }
      ],
      "stateMutability": "view",
      "type": "function"
    },
    {
      "inputs": [
        {
          "internalType": "uint256",
          "name": "tokenId",
          "type": "uint256"
        }
      ],
      "name": "ownerOf",
      "outputs": [
        {
          "internalType": "address",
          "name": "",
          "type": "address"
        }
      ],
      "stateMutability": "view",
      "type": "function"
    },
    {
      "inputs": [
        {
          "internalType": "address",
          "name": "from",
          "type": "address"
        },
        {
          "internalType": "address",
          "name": "to",
          "type": "address"
        },
        {
          "internalType": "uint256",
          "name": "tokenId",
          "type": "uint256"
        }
      ],
      "name": "safeTransferFrom",
      "outputs": [],
      "stateMutability": "payable",
      "type": "function"
    },
    {
      "inputs": [
        {
          "internalType": "address",
          "name": "from",
          "type": "address"
        },
        {
          "internalType": "address",
          "name": "to",
          "type": "address"
        },
        {
          "internalType": "uint256",
          "name": "tokenId",
          "type": "uint256"
        },
        {
          "internalType": "bytes",
          "name": "_data",
          "type": "bytes"
        }
      ],
      "name": "safeTransferFrom",
      "outputs": [],
      "stateMutability": "payable",
      "type": "function"
    },
    {
      "inputs": [
        {
          "internalType": "address",
          "name": "operator",
          "type": "address"
        },
        {
          "internalType": "bool",
          "name": "approved",
          "type": "bool"
        }
      ],
      "name": "setApprovalForAll",
      "outputs": [],
      "stateMutability": "nonpayable",
      "type": "function"
    },
    {
      "inputs": [
        {
          "internalType": "uint256[]",
          "name": "tokenIds",
          "type": "uint256[]"
        }
      ],
      "name": "stakeNft",
      "outputs": [],
      "stateMutability": "nonpayable",
      "type": "function"
    },
    {
      "inputs": [
        {
          "internalType": "bytes4",
          "name": "interfaceId",
          "type": "bytes4"
        }
      ],
      "name": "supportsInterface",
      "outputs": [
        {
          "internalType": "bool",
          "name": "",
          "type": "bool"
        }
      ],
      "stateMutability": "view",
      "type": "function"
    },
    {
      "inputs": [],
      "name": "symbol",
      "outputs": [
        {
          "internalType": "string",
          "name": "",
          "type": "string"
        }
      ],
      "stateMutability": "view",
      "type": "function"
    },
    {
      "inputs": [
        {
          "internalType": "uint256",
          "name": "tokenId",
          "type": "uint256"
        }
      ],
      "name": "tokenURI",
      "outputs": [
        {
          "internalType": "string",
          "name": "",
          "type": "string"
        }
      ],
      "stateMutability": "view",
      "type": "function"
    },
    {
      "inputs": [],
      "name": "totalSupply",
      "outputs": [
        {
          "internalType": "uint256",
          "name": "",
          "type": "uint256"
        }
      ],
      "stateMutability": "view",
      "type": "function"
    },
    {
      "inputs": [
        {
          "internalType": "address",
          "name": "from",
          "type": "address"
        },
        {
          "internalType": "address",
          "name": "to",
          "type": "address"
        },
        {
          "internalType": "uint256",
          "name": "tokenId",
          "type": "uint256"
        }
      ],
      "name": "transferFrom",
      "outputs": [],
      "stateMutability": "payable",
      "type": "function"
    },
    {
      "inputs": [],
      "name": "unstakeAll",
      "outputs": [],
      "stateMutability": "nonpayable",
      "type": "function"
    },
    {
      "inputs": [
        {
          "internalType": "uint256",
          "name": "tokenId",
          "type": "uint256"
        }
      ],
      "name": "withdraw",
      "outputs": [],
      "stateMutability": "nonpayable",
      "type": "function"
    }
  ],
  "bytecode": "0x60806040523480156200001157600080fd5b506040516200330d3803806200330d833981810160405281019062000037919062000256565b818181600290816200004a919062000526565b5080600390816200005c919062000526565b506200006d620000be60201b60201c565b600081905550505033600860006101000a81548173ffffffffffffffffffffffffffffffffffffffff021916908373ffffffffffffffffffffffffffffffffffffffff16021790555050506200060d565b600090565b6000604051905090565b600080fd5b600080fd5b600080fd5b600080fd5b6000601f19601f8301169050919050565b7f4e487b7100000000000000000000000000000000000000000000000000000000600052604160045260246000fd5b6200012c82620000e1565b810181811067ffffffffffffffff821117156200014e576200014d620000f2565b5b80604052505050565b600062000163620000c3565b905062000171828262000121565b919050565b600067ffffffffffffffff821115620001945762000193620000f2565b5b6200019f82620000e1565b9050602081019050919050565b60005b83811015620001cc578082015181840152602081019050620001af565b60008484015250505050565b6000620001ef620001e98462000176565b62000157565b9050828152602081018484840111156200020e576200020d620000dc565b5b6200021b848285620001ac565b509392505050565b600082601f8301126200023b576200023a620000d7565b5b81516200024d848260208601620001d8565b91505092915050565b6000806040838503121562000270576200026f620000cd565b5b600083015167ffffffffffffffff811115620002915762000290620000d2565b5b6200029f8582860162000223565b925050602083015167ffffffffffffffff811115620002c357620002c2620000d2565b5b620002d18582860162000223565b9150509250929050565b600081519050919050565b7f4e487b7100000000000000000000000000000000000000000000000000000000600052602260045260246000fd5b600060028204905060018216806200032e57607f821691505b602082108103620003445762000343620002e6565b5b50919050565b60008190508160005260206000209050919050565b60006020601f8301049050919050565b600082821b905092915050565b600060088302620003ae7fffffffffffffffffffffffffffffffffffffffffffffffffffffffffffffffff826200036f565b620003ba86836200036f565b95508019841693508086168417925050509392505050565b6000819050919050565b6000819050919050565b60006200040762000401620003fb84620003d2565b620003dc565b620003d2565b9050919050565b6000819050919050565b6200042383620003e6565b6200043b62000432826200040e565b8484546200037c565b825550505050565b600090565b6200045262000443565b6200045f81848462000418565b505050565b5b8181101562000487576200047b60008262000448565b60018101905062000465565b5050565b601f821115620004d657620004a0816200034a565b620004ab846200035f565b81016020851015620004bb578190505b620004d3620004ca856200035f565b83018262000464565b50505b505050565b600082821c905092915050565b6000620004fb60001984600802620004db565b1980831691505092915050565b6000620005168383620004e8565b9150826002028217905092915050565b6200053182620002db565b67ffffffffffffffff8111156200054d576200054c620000f2565b5b62000559825462000315565b620005668282856200048b565b600060209050601f8311600181146200059e576000841562000589578287015190505b62000595858262000508565b86555062000605565b601f198416620005ae866200034a565b60005b82811015620005d857848901518255600182019150602085019450602081019050620005b1565b86831015620005f85784890151620005f4601f891682620004e8565b8355505b6001600288020188555050505b505050505050565b612cf0806200061d6000396000f3fe60806040526004361061011f5760003560e01c806342842e0e116100a0578063a22cb46511610064578063a22cb4651461039b578063b88d4fde146103c4578063c87b56dd146103e0578063e985e9c51461041d578063feece0ab1461045a5761011f565b806342842e0e146102b157806342966c68146102cd5780636352211e146102f657806370a082311461033357806395d89b41146103705761011f565b80631f7bef8d116100e75780631f7bef8d1461021057806323b872dd1461022c5780632e1a7d4d1461024857806335322f37146102715780634017cdce146102885761011f565b806301ffc9a71461012457806306fdde0314610161578063081812fc1461018c578063095ea7b3146101c957806318160ddd146101e5575b600080fd5b34801561013057600080fd5b5061014b600480360381019061014691906120db565b610497565b6040516101589190612123565b60405180910390f35b34801561016d57600080fd5b50610176610529565b60405161018391906121ce565b60405180910390f35b34801561019857600080fd5b506101b360048036038101906101ae9190612226565b6105bb565b6040516101c09190612294565b60405180910390f35b6101e360048036038101906101de91906122db565b61063a565b005b3480156101f157600080fd5b506101fa61077e565b604051610207919061232a565b60405180910390f35b61022a600480360381019061022591906123aa565b610795565b005b6102466004803603810190610241919061240a565b61095b565b005b34801561025457600080fd5b5061026f600480360381019061026a9190612226565b610c7d565b005b34801561027d57600080fd5b50610286610f5f565b005b34801561029457600080fd5b506102af60048036038101906102aa919061259b565b611204565b005b6102cb60048036038101906102c6919061240a565b611376565b005b3480156102d957600080fd5b506102f460048036038101906102ef9190612226565b611396565b005b34801561030257600080fd5b5061031d60048036038101906103189190612226565b6113e2565b60405161032a9190612294565b60405180910390f35b34801561033f57600080fd5b5061035a600480360381019061035591906125e4565b6113f4565b604051610367919061232a565b60405180910390f35b34801561037c57600080fd5b506103856114ac565b60405161039291906121ce565b60405180910390f35b3480156103a757600080fd5b506103c260048036038101906103bd919061263d565b61153e565b005b6103de60048036038101906103d99190612732565b611649565b005b3480156103ec57600080fd5b5061040760048036038101906104029190612226565b6116bc565b60405161041491906121ce565b60405180910390f35b34801561042957600080fd5b50610444600480360381019061043f91906127b5565b61170f565b6040516104519190612123565b60405180910390f35b34801561046657600080fd5b50610481600480360381019061047c91906125e4565b6117a3565b60405161048e919061291d565b60405180910390f35b60006301ffc9a760e01b827bffffffffffffffffffffffffffffffffffffffffffffffffffffffff191614806104f257506380ac58cd60e01b827bffffffffffffffffffffffffffffffffffffffffffffffffffffffff1916145b806105225750635b5e139f60e01b827bffffffffffffffffffffffffffffffffffffffffffffffffffffffff1916145b9050919050565b6060600280546105389061296e565b80601f01602080910402602001604051908101604052809291908181526020018280546105649061296e565b80156105b15780601f10610586576101008083540402835291602001916105b1565b820191906000526020600020905b81548152906001019060200180831161059457829003601f168201915b5050505050905090565b60006105c682611870565b6105fc576040517fcf4700e400000000000000000000000000000000000000000000000000000000815260040160405180910390fd5b6006600083815260200190815260200160002060000160009054906101000a900473ffffffffffffffffffffffffffffffffffffffff169050919050565b6000610645826113e2565b90508073ffffffffffffffffffffffffffffffffffffffff166106666118cf565b73ffffffffffffffffffffffffffffffffffffffff16146106c9576106928161068d6118cf565b61170f565b6106c8576040517fcfb3b94200000000000000000000000000000000000000000000000000000000815260040160405180910390fd5b5b826006600084815260200190815260200160002060000160006101000a81548173ffffffffffffffffffffffffffffffffffffffff021916908373ffffffffffffffffffffffffffffffffffffffff160217905550818373ffffffffffffffffffffffffffffffffffffffff168273ffffffffffffffffffffffffffffffffffffffff167f8c5be1e5ebec7d5bd14f71427d1e84f3dd0314c0f7b2291e5b200ac8c7c3b92560405160405180910390a4505050565b60006107886118d7565b6001546000540303905090565b600860009054906101000a900473ffffffffffffffffffffffffffffffffffffffff1673ffffffffffffffffffffffffffffffffffffffff163373ffffffffffffffffffffffffffffffffffffffff1614610825576040517f08c379a000000000000000000000000000000000000000000000000000000000815260040161081c906129eb565b60405180910390fd5b600082829050905060006108376118dc565b905060005b828110156109465784848281811061085757610856612a0b565b5b90506020020135600a6000848152602001908152602001600020819055508080600101915050600b60008773ffffffffffffffffffffffffffffffffffffffff1673ffffffffffffffffffffffffffffffffffffffff1681526020019081526020016000206040518060600160405280428152602001848152602001600115158152509080600181540180825580915050600190039060005260206000209060030201600090919091909150600082015181600001556020820151816001015560408201518160020160006101000a81548160ff0219169083151502179055505050818060010192505061083c565b50505061095630838390506118e5565b505050565b600061096682611aa0565b90508373ffffffffffffffffffffffffffffffffffffffff168173ffffffffffffffffffffffffffffffffffffffff16146109cd576040517fa114810000000000000000000000000000000000000000000000000000000000815260040160405180910390fd5b6000806109d984611b6c565b915091506109ef81876109ea6118cf565b611b93565b610a3b57610a04866109ff6118cf565b61170f565b610a3a576040517f59c896be00000000000000000000000000000000000000000000000000000000815260040160405180910390fd5b5b600073ffffffffffffffffffffffffffffffffffffffff168573ffffffffffffffffffffffffffffffffffffffff1603610aa1576040517fea553b3400000000000000000000000000000000000000000000000000000000815260040160405180910390fd5b610aae8686866001611bd7565b8015610ab957600082555b600560008773ffffffffffffffffffffffffffffffffffffffff1673ffffffffffffffffffffffffffffffffffffffff168152602001908152602001600020600081546001900391905081905550600560008673ffffffffffffffffffffffffffffffffffffffff1673ffffffffffffffffffffffffffffffffffffffff1681526020019081526020016000206000815460010191905081905550610b8785610b63888887611bdd565b7c020000000000000000000000000000000000000000000000000000000017611c05565b600460008681526020019081526020016000208190555060007c0200000000000000000000000000000000000000000000000000000000841603610c0d5760006001850190506000600460008381526020019081526020016000205403610c0b576000548114610c0a578360046000838152602001908152602001600020819055505b5b505b838573ffffffffffffffffffffffffffffffffffffffff168773ffffffffffffffffffffffffffffffffffffffff167fddf252ad1be2c89b69c2b068fc378daa952ba7f163c4a11628f55a4df523b3ef60405160405180910390a4610c758686866001611c30565b505050505050565b6000600b60003373ffffffffffffffffffffffffffffffffffffffff1673ffffffffffffffffffffffffffffffffffffffff168152602001908152602001600020805480602002602001604051908101604052809291908181526020016000905b82821015610d3f578382906000526020600020906003020160405180606001604052908160008201548152602001600182015481526020016002820160009054906101000a900460ff16151515158152505081526020019060010190610cde565b505050509050600081519050600030905060005b82811015610f235784848281518110610d6f57610d6e612a0b565b5b602002602001015160200151148015610da35750838181518110610d9657610d95612a0b565b5b6020026020010151604001515b15610f1e576000600b60003373ffffffffffffffffffffffffffffffffffffffff1673ffffffffffffffffffffffffffffffffffffffff1681526020019081526020016000208281548110610dfb57610dfa612a0b565b5b906000526020600020906003020160020160006101000a81548160ff0219169083151502179055507fffffffffffffffffffffffffffffffffffffffffffffffffffffffffffffffff600b60003373ffffffffffffffffffffffffffffffffffffffff1673ffffffffffffffffffffffffffffffffffffffff1681526020019081526020016000208281548110610e9557610e94612a0b565b5b9060005260206000209060030201600001819055508173ffffffffffffffffffffffffffffffffffffffff166342842e0e3033886040518463ffffffff1660e01b8152600401610ee793929190612a3a565b600060405180830381600087803b158015610f0157600080fd5b505af1158015610f15573d6000803e3d6000fd5b50505050610f23565b610d53565b506040517f08c379a0000000000000000000000000000000000000000000000000000000008152600401610f5690612abd565b60405180910390fd5b6000600b60003373ffffffffffffffffffffffffffffffffffffffff1673ffffffffffffffffffffffffffffffffffffffff168152602001908152602001600020805480602002602001604051908101604052809291908181526020016000905b82821015611021578382906000526020600020906003020160405180606001604052908160008201548152602001600182015481526020016002820160009054906101000a900460ff16151515158152505081526020019060010190610fc0565b505050509050600081519050600030905060005b828110156111fe578381815181106110505761104f612a0b565b5b602002602001015160400151156111f1576000600b60003373ffffffffffffffffffffffffffffffffffffffff1673ffffffffffffffffffffffffffffffffffffffff16815260200190815260200160002082815481106110b4576110b3612a0b565b5b906000526020600020906003020160020160006101000a81548160ff0219169083151502179055507fffffffffffffffffffffffffffffffffffffffffffffffffffffffffffffffff600b60003373ffffffffffffffffffffffffffffffffffffffff1673ffffffffffffffffffffffffffffffffffffffff168152602001908152602001600020828154811061114e5761114d612a0b565b5b9060005260206000209060030201600001819055508173ffffffffffffffffffffffffffffffffffffffff166342842e0e303387858151811061119457611193612a0b565b5b6020026020010151602001516040518463ffffffff1660e01b81526004016111be93929190612a3a565b600060405180830381600087803b1580156111d857600080fd5b505af11580156111ec573d6000803e3d6000fd5b505050505b8080600101915050611035565b50505050565b60005b8151811015611372573373ffffffffffffffffffffffffffffffffffffffff1661124a83838151811061123d5761123c612a0b565b5b60200260200101516113e2565b73ffffffffffffffffffffffffffffffffffffffff161461126a57600080fd5b600b60003373ffffffffffffffffffffffffffffffffffffffff1673ffffffffffffffffffffffffffffffffffffffff16815260200190815260200160002060405180606001604052804281526020018484815181106112cd576112cc612a0b565b5b60200260200101518152602001600115158152509080600181540180825580915050600190039060005260206000209060030201600090919091909150600082015181600001556020820151816001015560408201518160020160006101000a81548160ff0219169083151502179055505050611365333084848151811061135857611357612a0b565b5b6020026020010151611376565b8080600101915050611207565b5050565b61139183838360405180602001604052806000815250611649565b505050565b3373ffffffffffffffffffffffffffffffffffffffff166113b6826113e2565b73ffffffffffffffffffffffffffffffffffffffff16146113d657600080fd5b6113df81611c36565b50565b60006113ed82611aa0565b9050919050565b60008073ffffffffffffffffffffffffffffffffffffffff168273ffffffffffffffffffffffffffffffffffffffff160361145b576040517f8f4eb60400000000000000000000000000000000000000000000000000000000815260040160405180910390fd5b67ffffffffffffffff600560008473ffffffffffffffffffffffffffffffffffffffff1673ffffffffffffffffffffffffffffffffffffffff16815260200190815260200160002054169050919050565b6060600380546114bb9061296e565b80601f01602080910402602001604051908101604052809291908181526020018280546114e79061296e565b80156115345780601f1061150957610100808354040283529160200191611534565b820191906000526020600020905b81548152906001019060200180831161151757829003601f168201915b5050505050905090565b806007600061154b6118cf565b73ffffffffffffffffffffffffffffffffffffffff1673ffffffffffffffffffffffffffffffffffffffff16815260200190815260200160002060008473ffffffffffffffffffffffffffffffffffffffff1673ffffffffffffffffffffffffffffffffffffffff16815260200190815260200160002060006101000a81548160ff0219169083151502179055508173ffffffffffffffffffffffffffffffffffffffff166115f86118cf565b73ffffffffffffffffffffffffffffffffffffffff167f17307eab39ab6107e8899845ad3d59bd9653f200f220920489ca2b5937696c318360405161163d9190612123565b60405180910390a35050565b61165484848461095b565b60008373ffffffffffffffffffffffffffffffffffffffff163b146116b65761167f84848484611c44565b6116b5576040517fd1a57ed600000000000000000000000000000000000000000000000000000000815260040160405180910390fd5b5b50505050565b60606000600a60008481526020019081526020016000205490506116de611d94565b6116e782611db4565b6040516020016116f8929190612b65565b604051602081830303815290604052915050919050565b6000600760008473ffffffffffffffffffffffffffffffffffffffff1673ffffffffffffffffffffffffffffffffffffffff16815260200190815260200160002060008373ffffffffffffffffffffffffffffffffffffffff1673ffffffffffffffffffffffffffffffffffffffff16815260200190815260200160002060009054906101000a900460ff16905092915050565b6060600b60008373ffffffffffffffffffffffffffffffffffffffff1673ffffffffffffffffffffffffffffffffffffffff168152602001908152602001600020805480602002602001604051908101604052809291908181526020016000905b82821015611865578382906000526020600020906003020160405180606001604052908160008201548152602001600182015481526020016002820160009054906101000a900460ff16151515158152505081526020019060010190611804565b505050509050919050565b60008161187b6118d7565b1115801561188a575060005482105b80156118c8575060007c0100000000000000000000000000000000000000000000000000000000600460008581526020019081526020016000205416145b9050919050565b600033905090565b600090565b60008054905090565b60008054905060008203611925576040517fb562e8dd00000000000000000000000000000000000000000000000000000000815260040160405180910390fd5b6119326000848385611bd7565b600160406001901b178202600560008573ffffffffffffffffffffffffffffffffffffffff1673ffffffffffffffffffffffffffffffffffffffff168152602001908152602001600020600082825401925050819055506119a98361199a6000866000611bdd565b6119a385611e04565b17611c05565b6004600083815260200190815260200160002081905550600080838301905073ffffffffffffffffffffffffffffffffffffffff85169150828260007fddf252ad1be2c89b69c2b068fc378daa952ba7f163c4a11628f55a4df523b3ef600080a4600183015b818114611a4a57808360007fddf252ad1be2c89b69c2b068fc378daa952ba7f163c4a11628f55a4df523b3ef600080a4600181019050611a0f565b5060008203611a85576040517f2e07630000000000000000000000000000000000000000000000000000000000815260040160405180910390fd5b806000819055505050611a9b6000848385611c30565b505050565b60008082905080611aaf6118d7565b11611b3557600054811015611b345760006004600083815260200190815260200160002054905060007c0100000000000000000000000000000000000000000000000000000000821603611b32575b60008103611b28576004600083600190039350838152602001908152602001600020549050611afe565b8092505050611b67565b505b5b6040517fdf2d9b4200000000000000000000000000000000000000000000000000000000815260040160405180910390fd5b919050565b60008060006006600085815260200190815260200160002090508092508254915050915091565b600073ffffffffffffffffffffffffffffffffffffffff8316925073ffffffffffffffffffffffffffffffffffffffff821691508382148383141790509392505050565b50505050565b60008060e883901c905060e8611bf4868684611e14565b62ffffff16901b9150509392505050565b600073ffffffffffffffffffffffffffffffffffffffff83169250814260a01b178317905092915050565b50505050565b611c41816000611e1d565b50565b60008373ffffffffffffffffffffffffffffffffffffffff1663150b7a02611c6a6118cf565b8786866040518563ffffffff1660e01b8152600401611c8c9493929190612be9565b6020604051808303816000875af1925050508015611cc857506040513d601f19601f82011682018060405250810190611cc59190612c4a565b60015b611d41573d8060008114611cf8576040519150601f19603f3d011682016040523d82523d6000602084013e611cfd565b606091505b506000815103611d39576040517fd1a57ed600000000000000000000000000000000000000000000000000000000815260040160405180910390fd5b805181602001fd5b63150b7a0260e01b7bffffffffffffffffffffffffffffffffffffffffffffffffffffffff1916817bffffffffffffffffffffffffffffffffffffffffffffffffffffffff191614915050949350505050565b6060604051806080016040528060438152602001612c7860439139905090565b606060a060405101806040526020810391506000825281835b600115611def57600184039350600a81066030018453600a8104905080611dcd575b50828103602084039350808452505050919050565b60006001821460e11b9050919050565b60009392505050565b6000611e2883611aa0565b90506000819050600080611e3b86611b6c565b915091508415611ea457611e578184611e526118cf565b611b93565b611ea357611e6c83611e676118cf565b61170f565b611ea2576040517f59c896be00000000000000000000000000000000000000000000000000000000815260040160405180910390fd5b5b5b611eb2836000886001611bd7565b8015611ebd57600082555b600160806001901b03600560008573ffffffffffffffffffffffffffffffffffffffff1673ffffffffffffffffffffffffffffffffffffffff16815260200190815260200160002060008282540192505081905550611f6583611f2285600088611bdd565b7c02000000000000000000000000000000000000000000000000000000007c01000000000000000000000000000000000000000000000000000000001717611c05565b600460008881526020019081526020016000208190555060007c0200000000000000000000000000000000000000000000000000000000851603611feb5760006001870190506000600460008381526020019081526020016000205403611fe9576000548114611fe8578460046000838152602001908152602001600020819055505b5b505b85600073ffffffffffffffffffffffffffffffffffffffff168473ffffffffffffffffffffffffffffffffffffffff167fddf252ad1be2c89b69c2b068fc378daa952ba7f163c4a11628f55a4df523b3ef60405160405180910390a4612055836000886001611c30565b600160008154809291906001019190505550505050505050565b6000604051905090565b600080fd5b600080fd5b60007fffffffff0000000000000000000000000000000000000000000000000000000082169050919050565b6120b881612083565b81146120c357600080fd5b50565b6000813590506120d5816120af565b92915050565b6000602082840312156120f1576120f0612079565b5b60006120ff848285016120c6565b91505092915050565b60008115159050919050565b61211d81612108565b82525050565b60006020820190506121386000830184612114565b92915050565b600081519050919050565b600082825260208201905092915050565b60005b8381101561217857808201518184015260208101905061215d565b60008484015250505050565b6000601f19601f8301169050919050565b60006121a08261213e565b6121aa8185612149565b93506121ba81856020860161215a565b6121c381612184565b840191505092915050565b600060208201905081810360008301526121e88184612195565b905092915050565b6000819050919050565b612203816121f0565b811461220e57600080fd5b50565b600081359050612220816121fa565b92915050565b60006020828403121561223c5761223b612079565b5b600061224a84828501612211565b91505092915050565b600073ffffffffffffffffffffffffffffffffffffffff82169050919050565b600061227e82612253565b9050919050565b61228e81612273565b82525050565b60006020820190506122a96000830184612285565b92915050565b6122b881612273565b81146122c357600080fd5b50565b6000813590506122d5816122af565b92915050565b600080604083850312156122f2576122f1612079565b5b6000612300858286016122c6565b925050602061231185828601612211565b9150509250929050565b612324816121f0565b82525050565b600060208201905061233f600083018461231b565b92915050565b600080fd5b600080fd5b600080fd5b60008083601f84011261236a57612369612345565b5b8235905067ffffffffffffffff8111156123875761238661234a565b5b6020830191508360208202830111156123a3576123a261234f565b5b9250929050565b6000806000604084860312156123c3576123c2612079565b5b60006123d1868287016122c6565b935050602084013567ffffffffffffffff8111156123f2576123f161207e565b5b6123fe86828701612354565b92509250509250925092565b60008060006060848603121561242357612422612079565b5b6000612431868287016122c6565b9350506020612442868287016122c6565b925050604061245386828701612211565b9150509250925092565b7f4e487b7100000000000000000000000000000000000000000000000000000000600052604160045260246000fd5b61249582612184565b810181811067ffffffffffffffff821117156124b4576124b361245d565b5b80604052505050565b60006124c761206f565b90506124d3828261248c565b919050565b600067ffffffffffffffff8211156124f3576124f261245d565b5b602082029050602081019050919050565b6000612517612512846124d8565b6124bd565b9050808382526020820190506020840283018581111561253a5761253961234f565b5b835b81811015612563578061254f8882612211565b84526020840193505060208101905061253c565b5050509392505050565b600082601f83011261258257612581612345565b5b8135612592848260208601612504565b91505092915050565b6000602082840312156125b1576125b0612079565b5b600082013567ffffffffffffffff8111156125cf576125ce61207e565b5b6125db8482850161256d565b91505092915050565b6000602082840312156125fa576125f9612079565b5b6000612608848285016122c6565b91505092915050565b61261a81612108565b811461262557600080fd5b50565b60008135905061263781612611565b92915050565b6000806040838503121561265457612653612079565b5b6000612662858286016122c6565b925050602061267385828601612628565b9150509250929050565b600080fd5b600067ffffffffffffffff82111561269d5761269c61245d565b5b6126a682612184565b9050602081019050919050565b82818337600083830152505050565b60006126d56126d084612682565b6124bd565b9050828152602081018484840111156126f1576126f061267d565b5b6126fc8482856126b3565b509392505050565b600082601f83011261271957612718612345565b5b81356127298482602086016126c2565b91505092915050565b6000806000806080858703121561274c5761274b612079565b5b600061275a878288016122c6565b945050602061276b878288016122c6565b935050604061277c87828801612211565b925050606085013567ffffffffffffffff81111561279d5761279c61207e565b5b6127a987828801612704565b91505092959194509250565b600080604083850312156127cc576127cb612079565b5b60006127da858286016122c6565b92505060206127eb858286016122c6565b9150509250929050565b600081519050919050565b600082825260208201905092915050565b6000819050602082019050919050565b6000819050919050565b61283481612821565b82525050565b612843816121f0565b82525050565b61285281612108565b82525050565b60608201600082015161286e600085018261282b565b506020820151612881602085018261283a565b5060408201516128946040850182612849565b50505050565b60006128a68383612858565b60608301905092915050565b6000602082019050919050565b60006128ca826127f5565b6128d48185612800565b93506128df83612811565b8060005b838110156129105781516128f7888261289a565b9750612902836128b2565b9250506001810190506128e3565b5085935050505092915050565b6000602082019050818103600083015261293781846128bf565b905092915050565b7f4e487b7100000000000000000000000000000000000000000000000000000000600052602260045260246000fd5b6000600282049050600182168061298657607f821691505b6020821081036129995761299861293f565b5b50919050565b7f4e6f742061206f776e6572000000000000000000000000000000000000000000600082015250565b60006129d5600b83612149565b91506129e08261299f565b602082019050919050565b60006020820190508181036000830152612a04816129c8565b9050919050565b7f4e487b7100000000000000000000000000000000000000000000000000000000600052603260045260246000fd5b6000606082019050612a4f6000830186612285565b612a5c6020830185612285565b612a69604083018461231b565b949350505050565b7f596f7520646964206e6f74207374616b6520676976656e204e46542100000000600082015250565b6000612aa7601c83612149565b9150612ab282612a71565b602082019050919050565b60006020820190508181036000830152612ad681612a9a565b9050919050565b600081905092915050565b6000612af38261213e565b612afd8185612add565b9350612b0d81856020860161215a565b80840191505092915050565b7f2e6a736f6e000000000000000000000000000000000000000000000000000000600082015250565b6000612b4f600583612add565b9150612b5a82612b19565b600582019050919050565b6000612b718285612ae8565b9150612b7d8284612ae8565b9150612b8882612b42565b91508190509392505050565b600081519050919050565b600082825260208201905092915050565b6000612bbb82612b94565b612bc58185612b9f565b9350612bd581856020860161215a565b612bde81612184565b840191505092915050565b6000608082019050612bfe6000830187612285565b612c0b6020830186612285565b612c18604083018561231b565b8181036060830152612c2a8184612bb0565b905095945050505050565b600081519050612c44816120af565b92915050565b600060208284031215612c6057612c5f612079565b5b6000612c6e84828501612c35565b9150509291505056fe697066733a2f2f626166796265696568787974363272326f356b79657467776d7a616f6c647337366737336f347832367a6f73776b3568366c68757271673361346d2fa2646970667358221220413d080a2b75e4c63ff61407de07b1ee66c3d4012c86f8f48a1cb9866f852e3b64736f6c63430008140033",
  "linkReferences": {},
  "deployedLinkReferences": {}
}